:020000040800F2
:10000000F808002085010008D1330008FD30000801
:1000100000000000000000000000000000000000E0
:10002000000000000000000000000000D5330008C0
:100030000000000000000000D3330008D7330008A0
:100040009701000897010008970100089701000830
:100050009701000897010008970100089701000820
:100060009701000895140008A514000897010008DE
:10007000970100089701000800000000893400087B
:10008000000000009934000800000000000000009B
:100090007134000800000000970100089701000873
:1000A000970100089701000897010008B53A000879
:1000B00097010008970100089701000897010008C0
:1000C00000F002F800F04EF80CA030C808382418F0
:1000D0002D18A246671EAB4654465D46AC4201D180
:1000E00000F040F87E460F3E0FCCB6460126334264
:1000F00000D0FB1AA246AB4633431847EC3E000043
:100100000C3F0000103A02D378C878C1FAD85207E1
:1001100001D330C830C101D504680C6070470000BD
:100120000023002400250026103A01D378C1FBD813
:10013000520700D330C100D50B60704710B5662957
:1001400002D103F0C7FE10BD002010BD1FB500F0A6
:100150006FFC04000020002103F0F8FDE0601FBDEB
:1001600010B510BD01F02EF81146FFF7EFFF03F0B8
:100170000FFD01F046F803B4FFF7F2FF03BC01F0F6
:100180008DF800000748804707480047FEE7FEE774
:10019000FEE7FEE7FEE7FEE704480549054A064B91
:1001A000704700006D340008C1000008F80200200C
:1001B000F8080020F8040020F8040020FEB50546E9
:1001C00010460C46184373D0AE468C460020AD1A3C
:1001D00001469C4167D36646002701243D46B61A76
:1001E0009D4102D313463A462124654676462F04A4
:1001F000360C3E432D0CB61A9D4104D3150C1B043E
:100200002B4312041034654676462F06360A3E43C9
:100210002D0AB61A9D4104D3150E1B022B43120260
:100220000834654676462F0736093E432D09B61A2F
:100230009D4104D3150F1B012B431201241D65465C
:100240007646AF07B6083E43AD08B61A9D4104D3C3
:10025000950F9B002B439200A41C65467646EF0742
:1002600076083E436D08B61A9D411AD392185B4139
:10027000641C16E00018764665464941B71A9D4150
:100280000191009009D36046B11A98418E46844688
:10029000009801990025401C6941DD0752082A4356
:1002A0005B08641EE6D57246634603B0F0BDFFE707
:1002B00000200146C046C0462A462346F5E7000016
:1002C0000FB41CB5074B06AA7B44694600900598FD
:1002D00000F095FB0020694600F0A4FB1CBC08BCA4
:1002E00004B0184759070000F3B50446002081B058
:1002F00020622046E168884700287AD0252802D06D
:100300006268A16871E0E1682046002588470646DA
:100310000020E0610746A0612A2E0AD0304603F093
:100320002FFC002827D0B8000019303E00908661CD
:1003300019E00298BA00121902C891610290204691
:10034000E1688847012F064617D1E06900281FDAC7
:10035000202085431CE000980A21806948430099C9
:100360008019303888612046E1688847064603F0E6
:1003700007FC0028EFD1012F0AD02E2E08D12046ED
:10038000E16888470646202005437F1C022FC3DB17
:10039000A069002803DA4042A06101200543E80774
:1003A00001D010208543002E23D030464138192833
:1003B00003D80120C002054320362046256031467F
:1003C000029A1546FFF7BAFE00280BD0012806D086
:1003D000ED1DE808C000083002908AE709E02D1DF5
:1003E000029586E762683046A1689047206A401C03
:1003F0007EE7206AFEBD000030B5441C03E00178B2
:10040000401C00290DD08107F9D10B4BDD0104C838
:10041000D11A91432940FAD0001B0A0603D0C01E0E
:1004200030BD001B30BD0A0401D0801E30BD090262
:10043000FCD0401E30BD00000101010101E004C0FC
:10044000091F0429FBD28B0701D50280801CC90734
:1004500000D00270704700290BD0C30702D0027091
:10046000401C491E022904D3830702D50280801C48
:10047000891EE3E70022EEE70022DFE700220309FE
:100480008B422CD3030A8B4211D300239C464EE0AF
:1004900003460B433CD4002243088B4231D303096B
:1004A0008B421CD3030A8B4201D394463FE0C3091D
:1004B0008B4201D3CB01C01A524183098B4201D335
:1004C0008B01C01A524143098B4201D34B01C01A20
:1004D000524103098B4201D30B01C01A5241C30898
:1004E0008B4201D3CB00C01A524183088B4201D307
:1004F0008B00C01A524143088B4201D34B00C01AF3
:100500005241411A00D201465241104670475DE007
:10051000CA0F00D04942031000D34042534000228A
:100520009C4603098B422DD3030A8B4212D3FC2233
:10053000890112BA030A8B420CD3890192118B42B2
:1005400008D3890192118B4204D389013AD09211C8
:1005500000E08909C3098B4201D3CB01C01A524183
:1005600083098B4201D38B01C01A524143098B424C
:1005700001D34B01C01A524103098B4201D30B0135
:10058000C01A5241C3088B4201D3CB00C01A52415A
:1005900083088B4201D38B00C01A5241D9D2430841
:1005A0008B4201D34B00C01A5241411A00D201467E
:1005B000634652415B10104601D34042002B00D5E8
:1005C0004942704763465B1000D3404201B50020AA
:1005D000C046C04602BD7047704770477047FFB5C0
:1005E0000C461E468FB003CA089009914F007D0D3E
:1005F00000D16D1E002108460020C0460321099A43
:1006000089050840002A03DA820080184008084063
:10061000800D01280A9002DD0020C0430A9008984E
:1006200007430DD0F048F14928184843071418989B
:1006300000281DD07542291E1DDD0A9842421BE08C
:100640001898012802D00020302104E00020F24355
:1006500005E02154401CB042FBDB30460022189BD1
:10066000002121540F998B600A60486013B0F0BDDF
:10067000BD1B6D1CDFE70A9A002900DA69420BA84E
:1006800000F05CFA0BAB07CB03AB07C308990998E2
:1006900000F0C0FA6B4607C30146D5480918002D83
:1006A00000910BDDD24903980A9A49424018002371
:1006B00003A90390684600F01DFD08E003990A9A1B
:1006C0000023081803A90390684600F0BDFC6B46A0
:1006D00007C30004000C03D00020C043410800E021
:1006E0001046189A002A03D00022009215461EE0F8
:1006F000751E05D400F0A0F9303262556D1EF9D593
:1007000001220843079602D000227F1C04E02078D3
:10071000302801D100227F1E002A069787D01EE0D4
:10072000112D07DA00F088F9303262556D1C02464F
:100730000A43F5D1084303D00098002819D00EE0F1
:100740000021681E05E0235C625C63542254401E55
:10075000491C8142F7DBA81B401E07950690079AAB
:1007600018990020A0540F98079B069A81600CC02E
:100770007CE711260020189059E7D21DF0B50D46F0
:100780000446D10893B0C90003C90C900D9103F041
:10079000BFF902460D98C00F01D02D2007E0206858
:1007A000810701D52B2002E04007C00F4001032A3A
:1007B0000F9001D0072A05DB03462946204600F0AA
:1007C00079F90EE12078800601D5E76900E0062777
:1007D0002846652D04D0662814D0672D69D12DE0F8
:1007E0000020112F009001DB112300E07B1C0CAADC
:1007F00003A910A8FFF7F3FE1199002610987D1C9D
:100800000E9142E001203B460CAAC0070B9001204C
:10081000009003A910A8FFF7E2FE119D129810990D
:10082000002600280E9501D1781C0D18781B02D4E3
:1008300046427D1C761EE81B00903AE0012F00DA4C
:1008400001270020112F009001DD112300E03B461D
:100850000CAA03A910A8FFF7C2FE11993D461098F3
:1008600000260E91217809070BD40E99A94200DACF
:100870000D4603A9012D04DD4A19203AD27F302A02
:1008800006D0B84201DA011D04DA012100910FE01F
:100890006D1EEFE7002802DC86192D1A03E0411CCB
:1008A000A94200DD0D46801B401C00900120C007BE
:1008B0000B902078000705D40098A84202DB0020A6
:1008C000C043009069460020C8720B98012102AF16
:1008D0000337C907884225D0022010902B201190A1
:1008E0000B9800280BDA40420B902D20119006E067
:1008F0000B9800F04FFC30317F1E0B90397010992F
:10090000481E00291090F3DC0B980028F0D11198B4
:100910007F1E38702088000501D5452000E0652045
:100920007F1E387001A8C01BC01D0B900F980028B7
:1009300000D0012041190098C01709180B98081819
:10094000A169081A401EA0612078C00602D4204682
:10095000C046C0460F98002805D06268A16890473D
:10096000206A401C20622078C00625D52046C0465B
:10097000C04621E0002E07DB0E98B04204DD03A83C
:100980006268805DA16802E06268A16830209047DB
:10099000206A761C401C20620098401E00280090AF
:1009A0000AD100F045F8C06862680168405CA1683F
:1009B0009047206A401C206228466D1E0028D9DC22
:1009C00007E062683878A1687F1C9047206A401C65
:1009D00020620B99481E00290B90F2DC2046C0468D
:1009E000C046032042E6000001FCFFFF104D00005E
:1009F000E1DFFFFF01694A1C02610878704700B51A
:100A00008FB002910021059105490193794403912A
:100A1000114604906846FFF767FC0FB000BD000068
:100A2000E5FFFFFF0A681070521C0A607047000063
:100A300000487047B40200200B4670B50246890793
:100A40008008084319469D08141AA941250908077A
:100A5000054308092C194841250A01060D43010ADE
:100A60002C194141200C0D0428430D0C00194D4157
:100A7000002140194D41C00869070843E908840F67
:100A80008D002543840024184D4124196D41121B0B
:100A9000AB4107E00925ED432C11521963410024B5
:100AA000401C61411C460A250026551BB441F1D269
:100AB00070BD0000F8B51F46044601230068DB0244
:100AC000032601461840072A05DB002801D017A598
:100AD00006E017A504E0002801D016A500E016A541
:100AE000102081432160A069C01E002FA06101D0A9
:100AF000401EA0612046C046C046002F09D038469F
:100B00006268A1689047206A401C2062C01C206275
:100B100006E0206AFAE762682878A1686D1C9047B1
:100B2000761EF8D22046C046C046F8BD4E414E0063
:100B30006E616E00494E4600696E6600F7B5164656
:100B40008AB0334878446C4603467C33C06F5A6899
:100B50009B680DC42E487844763003AC0DC80DC494
:100B60003720C001081837211B30FFF791FC0546DC
:100B70000C46803D1B3C02D56442012000E0002071
:100B80000027099010E0E0070CD00C2020497843A2
:100B9000794432464C3941186846012300F054FA32
:100BA0006B4607C364107F1C002CECD1184F7F44A8
:100BB0002E3F16E0E80712D02001C0190EC806919A
:100BC000089307920068F04201D1981908903246C4
:100BD000012306A903A800F037FA03AB07C36D1081
:100BE000641C002DE6D10998002806D032466946DB
:100BF000012303A800F07EFA05E00123324669468E
:100C000003A800F021FA0A9B07C30DB0F0BD000055
:100C1000C0330000034640000A4610B5400D0BD01B
:100C20000121C9070F24A40200191C0364082143F1
:100C3000540D2143D20207E000210120F2E7D40F36
:100C4000490021435200401E0029F8DADB0FDB0780
:100C5000184310BDFFB50D46144685B0486851686D
:100C600002F030FF00910190A868A16802F02AFF0D
:100C700002910390A868616802F024FF029A12189A
:100C80008242029201D2012000E00020019A0B185A
:100C9000D2180028019202D08A4202D903E08A4287
:100CA00001D2012000E00020009908180090686837
:100CB000A16802F007FF029A12188242029201D242
:100CC000012000E00020019A0B18D21800280192A0
:100CD00002D08A4202D903E08A4201D2012000E018
:100CE00000200099081800902868216840004900F9
:100CF000400849084018FA49471814E00199400093
:100D0000C90F08430090019802994000C90F084399
:100D10000190029803994000C90F0843029003987C
:100D200040007F1E039000980028E7DA089800280A
:100D300001D0EC4E00E00026B74201DA012000E0CD
:100D40000020002804902AD0F71BF806C00E15D00A
:100D5000029B2021091A039A8B401A430392029A9C
:100D6000019BC2408B401A430292019A009BC240F1
:100D70008B4000991A430192C14000917B110DD024
:100D80006F460320C11A03D500218200B95003E049
:100D90008A008100BA587A50401EF3D5374603982E
:100DA0000299002800D001200143089802910028F0
:100DB00008460CD0002800D001200199019A49056D
:100DC00008430121D20AC902D202019200E00121A6
:100DD0000E9B0122D207012B02D0002B03D013E07F
:100DE000002807D120E0904204D890420CD1019B0A
:100DF0000B4209D0019B5918019105D10099491C5A
:100E0000009101D17F1C009200280DD010210846CE
:100E10000020C0460498002806D00F98002803D070
:100E2000082108460020C04628682168019B009AD6
:100E30004840C10F0598C90739430EC009B0F0BD3D
:100E4000FFB587B0099A0898089953689268406876
:100E5000896896460022039317469446089A1268BA
:100E60005300099A5B081268520052089A1A9E4B66
:100E7000D4180A9A002A01D0352200E040220692B6
:100E80000022012315460492DB07059324E0002D80
:100E900005D175460346039E4D1BB34109D37546E4
:100EA0006646039B491B049D9841059B7519AC46FA
:100EB0005F4163463B4308D0059B049EDD077608EF
:100EC0002E435B080496059301E0521E641EC50F75
:100ED000ED0749184041521C069B9A42D7DB002D72
:100EE00004D17546039A6B1A824101D203200CE0AB
:100EF000039A0B466B404240134303D0014303D097
:100F0000012002E0022000E0002061460191002162
:100F1000009702910A99002905D0614640020143D9
:100F2000704B019102E08007002302909C4201DA9D
:100F3000012000E0002007003AD01A1BD006C00EA6
:100F400015D0029D2021019C091AC5408C402543E3
:100F5000029C8C4000D001242543019C0295009DF9
:100F6000C4408D4000992C430194C140009154111C
:100F70001DD06D460221002202290CD10320001B46
:100F800007E0002804DB8600AE59002E00D00122C5
:100F9000401C0328F5DB081B02D588002A5004E01A
:100FA0008000285810438A00A850491EE3D51C46EB
:100FB0000A98002802980CD0002800D0012001993E
:100FC000019A490508430121D20AC902D2020192BD
:100FD00000E00121109B0122D207012B02D0002B3F
:100FE00003D013E0002807D11FE0904204D89042BC
:100FF0000CD1019B0B4209D0019B5918019105D1DD
:101000000099491C009101D1641C009200280CD069
:10101000102108460020C046002F06D01198002855
:1010200003D0082108460020C04608980999019A73
:10103000009B006809684840C10F0798C907214311
:1010400082600AC00BB0F0BD00B585B0019300927C
:101050000A460146002302A8FFF7FCFD02A807C8C4
:1010600005B000BDFFB50A461F4685B0079901933C
:1010700001230091014602A8FFF7ECFD02990398B5
:10108000049ECA0F4900D20700920F22490892021B
:101090008C1A0021002800DB0C46450013486D081F
:1010A000844214D3079A002A04DA441E0026104D05
:1010B000F64302E004460D460E4610210846002085
:1010C000C046002F03D0042108460020C04620055A
:1010D000E90A0843009908436905F20A1143ADE69D
:1010E00002C0FFFF013C0000FF3F0000FF070000BF
:1010F000FFFFFF7F00B585B0019300920A460146CD
:10110000002302A8FFF79CFE02A807C8A8E7FFB5C6
:101110000A461F4685B007990193012300910146B5
:1011200002A8FFF78DFE02990398049ECA0F49009A
:10113000D20700920F22490892028C1A002100283F
:1011400000DB0C46450011486D08844214D3079A11
:10115000002A04DA441E00260D4DF64302E0044640
:101160000D460E46102108460020C046002F03D031
:10117000042108460020C0462005E90A08430099DA
:1011800008436905F20A114358E60000FF07000012
:10119000FFFFFF7F01468008081A02091018020AA3
:1011A0001018020C1018C008820012185200891A78
:1011B00001E0401C0A390A29FBD2704700487047F9
:1011C000940200207546FFF7F9FFAE460500694618
:1011D0005346C008C000854618B020B5FEF7DCFFB6
:1011E00060BC00274908B6460026C0C5C0C5C0C5BA
:1011F000C0C5C0C5C0C5C0C5C0C5403D49008D46BD
:10120000704710B50446C046C0462046FEF7B3FFFF
:1012100010BD0000024670B50A4392072AD11E4D48
:10122000EE0104C808C9541B9443344017D0D0B20F
:10123000D9B2401A2106014310D190B299B2401A96
:10124000210401430AD110021902000A090A401AB6
:101250002102014302D1100E190E401A70BD9A42AC
:10126000DFD010BA19BA884201D9012070BD002020
:10127000C04370BD02780B78401C491C002A09D07D
:101280009A4207D102780B78401C491C002A01D0F1
:101290009A42EFD0D01A70BD010101010149182016
:1012A000ABBEFEE726000200704770B5044600683A
:1012B0008168490724D5816810264907002905DA85
:1012C0008168890702D481683143816000F0A6FDFE
:1012D000054611E000F0A2FD401B0A280CD9206849
:1012E0008068400708D5606D30436065A06D0121BE
:1012F0000843A065084670BD206880684007E9D4AF
:10130000002070BD10B50146806A426D50231A421C
:101310000AD1416D01225202114341650168CA6838
:101320001205920F05D021E0C06C426B0846904731
:1013300010BD2022125C002A18D10A68120715D5A8
:101340008A6853070122002B09DB4B680C24A34356
:101350004B60416D130299431143416506E0416DB5
:10136000202319434165816D1143816500F074F9B3
:1013700010BD10B5806A416D402211434165816DF9
:1013800004221143816500F074F910BD10B5806A24
:1013900000F06EF910BD000038B504460648054956
:1013A0000068FFF76BF8604300E0401E00900028E3
:1013B000FBD138BD40420F0018000020F8B50446AC
:1013C000006881688907890F012929D10168C90747
:1013D00026D081680522114010250126012913D14C
:1013E000816802221143816021680320086000F0B7
:1013F00015FD074610E000F011FDC01B0A280BD9AF
:1014000020688068C00707D0606D28436065A06DC4
:101410003043A0650120F8BD20688068C007EAD18C
:101420000020F8BDF8B50446006881688907890F77
:10143000012902D10168C90727D18168144A102601
:1014400011400125002913D18168294381600120C1
:10145000FFF7A2FF00F0E2FC074611E000F0DEFC1F
:10146000C01B0A280CD920680068C043C00707D0F9
:10147000606D30436065A06D2843A0650120F8BD14
:1014800020680068C043C007E8D10020F8BD000014
:101490001700008010B5024800F0F8FA10BD0000F7
:1014A000BC01002010B5034800F0F0FA024800F03B
:1014B000EDFA10BD4C0200200402002030B5446C4F
:1014C0001C252C400125A540046C65600468636000
:1014D0008368102B036803D099600068C26030BD38
:1014E0009A600068C16030BD72B6FEE7F8B5054687
:1014F00004464035287C0026012808D001202874A5
:10150000206881688907890F01290ED101E0022036
:10151000F8BD0168C90708D0606D202108436065E7
:101520000126002028743046F8BD616DFF2201328B
:101530009143022211436165C1688907890F0091B7
:10154000C16889088900C1602068816892071143D9
:10155000816000F063FC074612E000F05FFCC01BF6
:101560000A280DD920688068002809DA606D0221F8
:101570008843102108436065002028740120F8BDCD
:10158000206880680028E8DB2068C168009A114361
:10159000C160606D80088000401C6065C1E700008C
:1015A000F8B506460D464036317C01290DD00121A3
:1015B000317401688A68520709D5416D20221143B0
:1015C0004165002030740120F8BD0220F8BD204B99
:1015D0006A68D80547109A421E4C8A6A2B681BD04D
:1015E0005B035B0B1A438A622968490305D5A1682E
:1015F0000143A1600A20FFF7CFFE2868800302D5CF
:10160000A0683843A0602868C0031DD5A0680121E8
:1016100009060843A06017E05B035B0B9A438A62EC
:101620002968490302D5A1688143A1602868800325
:1016300002D5A068B843A0602868C00304D5A1689B
:10164000012000068143A16000203074F8BD000035
:10165000011000000027014000680349884202D1C0
:10166000024901200870704700240140000000205A
:101670007047704770B5040006D0606D264600259F
:101680004036002802D006E0012070BDA565357403
:10169000204600F0D3F8606DC00603D42168886846
:1016A000400705D5606D1021084360653574EBE790
:1016B000606DFF220132904302221043606588680A
:1016C0008207920F5B48012A02D10A68D2072BD108
:1016D000032362689B079A4205D05B429A4202D07C
:1016E0005B009A4209D10A69920092080A61216856
:1016F0000A6963681A430A610CE00A699200920859
:101700000A6181680F229204914381608168626856
:10171000114381602168CA6818239A43CA6021680E
:10172000CA68A3681A43CA608168012252069143BD
:1017300081608168A28E52061143816020688168B1
:10174000C90004D481680122120711438160206816
:10175000C168394A1140C1602069E168022825D07A
:1017600000200143204620300278037B52035B00B7
:101770001A431143226B1143A26992031143E26998
:10178000D20311432268D3681943D160616A0A46C3
:10179000FF3AC23A05D0A26A11432268D3681943BE
:1017A000D16042780121012A02D00BE00420D8E761
:1017B0000078002823D0606D202210436065A06D62
:1017C0000843A065E06B012820681FD00169C907A4
:1017D00003D0016949084900016120684169C908CD
:1017E000C900416120684169A26B11434161A5654F
:1017F000606D80088000401C6065002070BD20681E
:10180000C26801231B041A43C260DBE70269FF239D
:101810009B009A43026120680269236CA66C1A43FC
:10182000636C33431A430261206802690A43026110
:10183000D3E70000002701401902FEFFF0B587B092
:10184000064614216846FEF717FE20493068884294
:101850003AD11F49486B4A1510434863CA6A0420AD
:101860000243CA62CA6A02400592C86A022420433F
:10187000C862C86A0327204005900E20002500900A
:10188000694601970295134800F0E2F9694612484B
:1018900001970295009400F0DBF91048104C21C428
:1018A000256080206560A0604000E0606561800088
:1018B000A56120610A48083C00F03CF9002801D0ED
:1018C000FFF712FEF464A66207B0F0BD00240140E9
:1018D00000100240000800500004005008000240C0
:1018E000BC010020F7B50446006817468168002552
:1018F00049073CD426464036317C01290DD00121D0
:101900003174C2680A43C260E069012807D02046EA
:10191000FFF788FD050002D02AE00220FEBD606DC1
:1019200014490840FF210131084360650020A0658B
:101930003074E16C1048C862E16C10480863E16CD7
:101940000F48486321681C20086020684168102205
:101950001143416021683B46E06C4031019A00F040
:1019600031F92068816804221143816000E002257A
:101970002846FEBDFEF1FFFF051300088D13000889
:1019800073130008F8B5064604464036307C01283B
:1019900007D0012737742046FFF787FC050002D0E7
:1019A00028E00220F8BD2068C16849084900C160EC
:1019B000E06C2521095C022907D100F01FF8050021
:1019C00003D0606D402108436065206841681022A3
:1019D00091434160002D204602D0FFF7EFFC09E063
:1019E000FFF7ECFC050005D1606DFF210131884354
:1019F00038436065002030742846F8BD30B5014694
:101A000020314A790023022A04D00422C2630B71D8
:101A1000012030BD026814680E25AC4314600268D2
:101A20001468640864001460446C1C221440012291
:101A30001546006CA54045604A7118460B7130BDD3
:101A400070B50024014620314A79022A03D00421CE
:101A5000C163012418E0026813680E25AB431360CC
:101A6000026813685B085B001360436C1C22134020
:101A7000012215469D40036C5D604A7100220A7187
:101A8000816B002900D08847204670BDF0B4016CFE
:101A90000D6801680C68466C1C2304221E40174622
:101AA000B7402F420ED067070CD50C68A40602D4AD
:101AB0000C6894430C60416C19408A40016C4A6088
:101AC000016B1AE00227B74002462F402032002F58
:101AD00017D0A70715D50C68A40605D40C680A25ED
:101AE000AC430C6001215171446C02211C40036C19
:101AF000A140596000211171C16A002918D0F0BCC1
:101B000008470827B7402F4212D0240710D50C6889
:101B10000E25AC430C60446C01211C400B46A340D5
:101B2000046C6360C163517100211171416BE4E782
:101B3000F0BC704770B504003CD01F4825681421E4
:101B40002818FEF79BFC800060641C48206402217A
:101B5000204620300246417129681948E368014057
:101B6000A06866691843236933431843A36918437F
:101B7000E3691843236A1843084328600121A068D9
:101B80008903884210D00D488030836A656C1C211F
:101B90000D400F26AE40B3438362656C63680D4011
:101BA000816AAB400B4383620020E06301215171E5
:101BB000107170BD012070BDF8FFFDBF0000024034
:101BC0000F80FFFFF8B504468C46203001790025D0
:101BD000012909D00126067141790027012905D084
:101BE000077102252846F8BD0220F8BD0221417187
:101BF000E7632068016849084900016061462046A2
:101C0000FFF75CFC206B00282068016801D00E22E1
:101C100005E0042291430160206801680A22114313
:101C200001602068016831430160DBE770B504465C
:101C300000F0F4F80546601C02D00448007824182F
:101C400000F0ECF8401BA042FAD370BD0C0000205D
:101C5000F8B5002303240125BDE032462E469E4000
:101C6000B446324079D00E79B607B60F012E01D0B6
:101C7000022E17D186682746B6465E00B74000960A
:101C80007646BE43B646CF68009EB7407646374399
:101C9000876046686746BE430F79FF06FF0F9F4087
:101CA000374347600E79F643B6070ED0C66827461D
:101CB000B4465E00B646B7406646BE43B4468F683B
:101CC0007646B74066463743C7600E79B607B60F0B
:101CD000022E14D1DE08B60036180096366A5F0769
:101CE000B446FE0E0F27B646B7406646BE43B4461E
:101CF0000F697646B74066463743009E37620668EE
:101D00002746B4465E00B646B7406646BE430F79E6
:101D1000B446BF07BF0F7646B740664637430760F5
:101D20004E68B603B60F55D02E4F7E6B2E437E63A2
:101D30009F082D4EBF00BE190096B6680F27B44607
:101D40009E07360FB646B7406646BE4305273F0797
:101D5000B446B84202D1002715E03BE0234FB84219
:101D600001D101270FE0224FB84201D102270AE03A
:101D7000204FB84201D1032705E01F4FB84201D1DF
:101D8000052700E006277646B74066463743009EA3
:101D9000B7601A4E36684F689643FF0300D5164366
:101DA000164F3E607E684F689643BF0300D51643CA
:101DB000124F7E60BE684F689643FF0200D51643FF
:101DC0000E4FBE60FE684F689643BF0200D51643B3
:101DD0000A4AD6605B1C0A681646DA4000D03CE727
:101DE000F8BD000000100240000001400004005057
:101DF00000080050000C0050001C0050000401407E
:101E0000426913460B401B0491430B4383617047A7
:101E1000002A01D081617047816270470148806863
:101E2000704700000C000020024881680278891881
:101E3000816070470C00002010B50848002401683C
:101E4000402211430160032000F00AF8002801D06D
:101E5000012401E000F026F8204610BD00200240D9
:101E600070B504460D4D7D202978C000FEF706FBB5
:101E700001460B480068FEF701FB00F06DFC0028EE
:101E800009D1042C07D200222146401E00F022F87E
:101E900000206C6070BD012070BD00000C000020AF
:101EA000180000200448416B012211434163816BFB
:101EB000020411438163704700100240002805DBD3
:101EC000C106C90E01208840014908607047000022
:101ED00000E100E010B501F031FE10BDF8B5044698
:101EE00000680027604D810601D400057ED55E4E56
:101EF000403EB06BC00004D4B06B31040843B06303
:101F000001275A480168C90511D401688215114397
:101F10000160FFF783FF009005E0FFF77FFF009966
:101F2000401A642844D851480068C005F5D5316886
:101F300003200005626801401040884205D1032358
:101F4000A0681B051840884208D09003800F032822
:101F500004D13068800301D50120F8BD2869032130
:101F60000904084029D00A40824202D02278920611
:101F700006D4A2680A4082421FD0208800051CD5E2
:101F800028692A6988430121C9040A432A612A6908
:101F90008A432A612861C0050FD5FFF73FFF0090F3
:101FA00008E0FFF73BFF0099411A3148814201D90F
:101FB0000320F8BD28698005F3D561688803800F88
:101FC000032805D132680005824301400A4332608C
:101FD0002869032261681204114008432861002F18
:101FE00006D0B16B01200007814300E000E0B1633F
:101FF0002078C00705D0E868E168800880000843C1
:10200000E8602078800705D5E8680C2188432169BD
:102010000843E8602078400706D5E8680321890274
:10202000884361690843E8602078000706D5E868BE
:10203000032109038843A1690843E860207840062A
:1020400006D5E868012189068843216A0843E860CB
:102050002078000606D5E868032189048843E169F1
:102060000843E8600020F8BD4010024000700040C6
:1020700088130000F8B50E46050038D05E480068A9
:10208000C007C00FB04214D25B4C2068400840002B
:1020900030432060FFF7C2FE074605E0FFF7BEFEB3
:1020A000C11B564881427AD82068C007C00FB04291
:1020B000F4D12878524C800705D5E068F021884398
:1020C000A9680843E0602878C00752D068680228F1
:1020D00006D0032807D0216801280AD0890504E02A
:1020E0002168890301E021688901002903DB0120BF
:1020F000F8BD4907F9E7E168890889000143E16013
:10210000FFF78CFE0746686802280AD0032814D01F
:1021100001281ED029E0FFF781FEC11B374881420C
:102120003DD8E0680007800F0228F4D121E0FFF7D6
:1021300075FEC11B3148814231D8E0680007800F2D
:102140000328F4D115E0FFF769FEC11B2B4881423B
:1021500025D8E0680007800F0128F4D109E0FFF7D7
:102160005DFEC11B2548814219D8E0680007800F39
:10217000F5D121480168C907C90FB14217D90168D3
:102180004908490031430160FFF748FE074608E06F
:1021900005E0FFF743FEC11B1848814201D9032027
:1021A000F8BD15480068C007C00FB042F1D12878CB
:1021B000400706D5E068072109028843E96808431B
:1021C000E0602878000707D5E0680721C902884346
:1021D0002969C9000843E06000F03AF8E168094A5B
:1021E0000906090F515CC8400749086007480068A4
:1021F000FFF736FEF8BD0000002002408813000003
:1022000000100240E43E00081800002010000020EA
:10221000044805490068C968044A4905490F515CEA
:10222000C84070471800002000100240FD3E000822
:10223000044805490068C968044A8904490F515C8B
:10224000C84070471800002000100240FD3E000802
:1022500070B51A4AD3681A490C2018408D0004281A
:102260000CD04E00082810D00C2810D05068000464
:10227000410F0120C003491C884070BD1068C00692
:1022800001D5084670BD284670BD304670BD980225
:102290000C4C000F205C1B029C0FD368641CDB03FA
:1022A00001D5314603E01268D20600D4294601F078
:1022B00009FC22460023FDF781FF70BD001002409B
:1022C00000093D00F43E0008FEB505007ED0FE4C3E
:1022D000E7680C20E66807400120000406402878E3
:1022E000C00747D0082F05D00C2F0AD101200004C9
:1022F000864206D1206880033CD568680028E5D076
:1023000038E0012069680004814203D1216801435B
:10231000216011E0052301221B04920499422168E7
:1023200002D111432160F1E781432160216801401E
:102330000091206890432060686800280DD0FFF766
:102340006DFD009005E0FFF769FD0099401A6428D3
:102350007BD820688003F6D50CE0FFF75FFD009086
:1023600005E0FFF75BFD0099401A6428F0D820686B
:102370008003F6D42878800756D50923E868042F0F
:102380000DD00C2F01D1002E09D000283CD021689F
:10239000994301432160FFF741FD064628E021688B
:1023A000490701D5002891D061681F22120291438C
:1023B0002A69120211436160216899430143216037
:1023C000FFF746FFE16809060A0F00E0BFE1BF49D9
:1023D000895CC840BE490860BE480068FFF740FD00
:1023E000002873D120E0FFF719FD801B0228AFD829
:1023F00020684007F7D560681F21090288432969D2
:102400000902084360600FE0206840084000206037
:10241000FFF704FD064604E0FFF700FD801B0228DD
:1024200096D820684007F7D42878C00660D5002FDA
:102430000CD0E86900284AD02068FF210131084308
:102440002060FFF7EBFC06462EE0E5E02068800503
:1024500002D5E8690028A6D06068072149038843AF
:10246000696A084360606068298C0002000A0906F6
:1024700008436060686A410B0120C003491C884022
:10248000E16809060A0F9149895CC84090490860D3
:1024900090480068FFF7E4FC002817D128E0FFF718
:1024A000BDFC801B0228A2D820688005F7D5606893
:1024B000072149038843696A084360606068298C82
:1024C0000002000A09060843606011E025E1216866
:1024D000FF20013081432160FFF7A0FC064604E0A5
:1024E000FFF79CFC801B02289AD820688005F7D44F
:1024F0002878794E000724D568690028306910D003
:10250000012108433061FFF789FC009005E0FFF7E7
:1025100085FC0099401A02287ED830698007F6D5DC
:102520000FE0400840003061FFF778FC009005E0C4
:10253000FFF774FC0099401A02286DD830698007B3
:10254000F6D42878400764D500200290A06BC00024
:1025500006D4A06B012109070843A0630120029063
:102560005E480168C90511D40168821511430160F4
:10257000FFF754FC009005E0FFF750FC0099401A6B
:10258000642849D855480068C005F5D5FF20AA68D9
:102590000130824203D131690143316111E00121EF
:1025A0008902002A07D005231B029A4203D132690F
:1025B0000A433261EFE7326982433261306988430E
:1025C0003061A86800280ED0FFF728FC009006E0D4
:1025D000FFF724FC0099411A414881421CD8306918
:1025E0008005F5D50DE0FFF719FC009006E0FFF738
:1025F00015FC0099411A3A4881420DD8306980058E
:10260000F5D40298002804D0A16B01200007814373
:10261000A1632878800600E07EE02ED53148A969C4
:102620004314002916D0A26801210A43A260626BFC
:102630000A436263016A19430162FFF7EFFB064632
:1026400004E0FFF7EBFB801B022865D8A068800739
:10265000F7D512E0A16849084900A160016A9943D1
:102660000162FFF7DBFB064604E0FFF7D7FB801BA8
:10267000022851D8A0688007F7D4A86A002868D03B
:102680000C2F4FD0012636060228206805D0B04313
:102690002060FFF7C3FB054640E0B0432060FFF732
:1026A000BDFB074604E0FFF7B9FBC01B022833D887
:1026B00020688001F7D4296BE86AE2680843696BF7
:1026C000FD231B049A430FE000100240E43E000883
:1026D0001800002010000020401002400070004050
:1026E000881300000000014011430843E0602068A7
:1026F00030432060FFF792FB054604E0FFF78EFBB6
:10270000401B022808D820688001F7D521E0FFF798
:1027100085FB401B022801D90320FEBD20688001F3
:10272000F5D416E00128F8D0E06801210904EA6A2E
:10273000014091420BD10F2189042A6B0140914243
:1027400005D1032189050840696B884201D0012029
:10275000FEBD0020FEBD0000094910B5401E8842A4
:1027600001D9012010BD074C60610321081F01F051
:10277000E5F90020A06107202061002010BD0000C5
:10278000FFFFFF0000E000E0F0B502462032137EBC
:10279000012B1ED001251576022353760668746836
:1027A000B3687027BC430F68274377600068AC07A5
:1027B000A04205D0084CA04202D0084CA04204D14F
:1027C00080244968A3431943816055760020107620
:1027D000F0BD0220F0BD00000008014000140140DF
:1027E00070B5050005D02C462034607E002802D04C
:1027F00006E0012070BD00202076284600F010F889
:1028000002206076291D286800F04EFE0120A07786
:10281000A076E076207760776076002070BD0000BB
:1028200010B5012201689207154891420AD1816BC7
:10283000012211438163002211460F20FFF74AFB5A
:102840000F200CE00F4A91420CD1816B10221143F2
:102850008163002211461120FFF73CFB1120FFF796
:102860002DFB10BD084A9142FBD1416B042211435C
:102870004163002211461420FFF72CFB1420EEE7E1
:1028800000100240001000400008014001462031C5
:102890004A7E012A01D00120704702224A7602684E
:1028A000D36801210B43D36000688A07904205D0AA
:1028B000074A904202D0074A904204D182685207E8
:1028C000520F062A02D002680A43026000207047B5
:1028D0000008014000140140F8B5054604462035C3
:1028E000287E0026012817D001202876022068764D
:1028F000226890687727FF23B8431B0298439060B3
:102900000868502838D00EDC20284FD006DC00287C
:102910004CD010281ED149E00220F8BD302845D007
:10292000402817D13AE060282ED0702819D0012213
:102930001203801A0FD090420CD1CB684A68896884
:10294000206800F0DDFD20688168012292031143B8
:10295000816000E00126012068760020287630465C
:10296000F8BDCB684A688968206800F0C9FD216815
:10297000886838438860EEE7CA684968206800F0D4
:1029800039FE5021206806E0CA684968206800F0D6
:1029900042FE6021206800F0BEFDDCE7CA6849689D
:1029A000206800F027FE40212068F4E722680146F5
:1029B0001046F0E7704770B50446006801690025CD
:1029C000C9438907002915DBC168C943890711D4A8
:1029D000E91E016101202076206880698007204679
:1029E00002D0FFF7E7FF04E000F09EF8204600F079
:1029F00024F9257620680169C943490717D4C168BD
:102A0000C943490713D40421C94301610220207638
:102A1000206880698005800F204602D0FFF7CAFF3A
:102A200004E000F081F8204600F007F925762068E0
:102A30000169C943090716D4C168C943090712D4FB
:102A40000821C9430161042020762068C0698007FD
:102A5000204602D0FFF7AEFF04E000F065F8204604
:102A600000F0EBF8257620680169C943C90617D440
:102A7000C168C943C90613D41021C94301610820A4
:102A800020762068C0698005800F204602D0FFF7BD
:102A900091FF04E000F048F8204600F0CEF82576DB
:102AA00020680169C943C90708D1C168C943C9077A
:102AB00004D1891E0161204600F0C0F82068016938
:102AC000C943490609D4C168C943490605D4402110
:102AD000C9430161204600F0B2F870BD10B586B060
:102AE000044614216846FDF7C7FC012120688907C8
:102AF000884214D10B48C16A01221143C162C06AE5
:102B0000022110400590D003009000200290052083
:102B100001910391049069460007FFF799F806B008
:102B200010BD0000001002407047F8B5064604468C
:102B30002036307E00270D4601280ED00120307649
:102B4000002A0CD0042A1BD0082A2FD00C2A3ED0F1
:102B50000127002030763846F8BD0220F8BD2068F5
:102B600000F0E1FC2068816908221143816120683E
:102B7000826904218A43826120688169EA6812E0DF
:102B8000206800F0E8FC206882690121C9020A433C
:102B900082612068816901229202914381612068EB
:102BA0008169EA68120211438161D2E7206800F06E
:102BB000EBFC2068C16908221143C1612068C26929
:102BC00004218A43C2612068C169EA6812E0206872
:102BD00000F0F5FC2068C1690122D2021143C161F5
:102BE0002068C269012189028A43C2612068C169E3
:102BF000EA6812021143C161ABE770B5050005D068
:102C00002C462034607E002802D006E0012070BDF2
:102C100000202076284600F00FF802206076291D5B
:102C2000286800F041FC0120A077A076E0762077AC
:102C300060776076002070BD7047704770477047BE
:102C40007047704770470000F8B502680446D069C5
:102C500011689668A24B05461D402023002D75D0B3
:102C6000F707A04DFF0FBC460D402F436DD0254602
:102C7000C7078035002F06D0CF0504D5012717627E
:102C80002A683A432A60820708D5F20706D02768E7
:102C900002223A622A6804273A432A60420708D58A
:102CA000F20706D02668042232622A6802263243DE
:102CB0002A6002070AD50A461A406646324305D002
:102CC0002668082232622E6816432E60020508D557
:102CD0004A0106D501222668D20232622A681A43C6
:102CE0002A602A68002A39D0800606D5880604D5CD
:102CF000616E002901D020468847286821688968CC
:102D0000490602D4282108422DD0204600F038FD83
:102D100021688868400622D5EFF31080012282F3F3
:102D200010888B68402293438B6080F31088206F5B
:102D3000002814D06C498163206FFEF781FE0028C3
:102D40000CD0206F816B08E000E012E0850610D502
:102D50008D060ED5616EA9E020468847F8BD204655
:102D6000FFF770FFF8BD2046FFF76CFF00202860DA
:102D7000F8BD256E012D7CD1C5067AD5CD0678D556
:102D800010261662226890682546400640350028C5
:102D900046DA216F086840680004000CE8D02F8BE9
:102DA0008742E5D9688308680068800633D4EFF36A
:102DB0001080012181F3108811683701B943116037
:102DC00080F31088EFF31080012181F310882168CF
:102DD0008A68520852008A6080F31088EFF31080EE
:102DE000012181F3108821688A684027BA438A60EC
:102DF00080F31088E36700202066EFF31080012144
:102E000081F3108821680A68B2430A6080F3108851
:102E1000206FFEF7F3FD288B698B401A81B231E0F9
:102E2000288B698B401A81B2688B0028A0D00029BA
:102E30009ED0EFF31080012585F310881568FF27D9
:102E40002137BD43156080F31088EFF31080012215
:102E500082F31088226895686D086D00956080F394
:102E60001088E367002020666066EFF3108001227F
:102E700000E00BE082F3108822681368B34313600C
:102E800080F310882046FFF7DBFEF8BDC50208D5A9
:102E9000750206D50120000510622046FFF7D1FE1D
:102EA000F8BD050606D50D0604D5A16E002900D093
:102EB00052E7F8BD4006FCD54806FAD52046EFF3A8
:102EC0001081012484F3108814684025AC431460F9
:102ED00081F3108883670021816600F00EF9F8BD48
:102EE0000F080000200100046D37000810B5040031
:102EF00003D0A06F002802D007E0012010BD002100
:102F000074200155204600F027F82420A06720688F
:102F10000168490849000160204600F061FC012871
:102F2000ECD0606A002802D0204600F087FB2068C1
:102F300041680922D20291434160206881682A22B7
:102F4000914381602068016801221143016020469D
:102F500000F0DAFB10BD0000F0B587B00646142182
:102F60006846FDF789FA2B49306888424FD12A48D4
:102F7000416B0122920311434163C16A0122114353
:102F8000C162C06A002410400590032040020090F6
:102F90000220032701A991C104200490052069465D
:102FA0000007FEF755FE1E4D1C48AC60EC6081C565
:102FB000EC602C6180276C61AF60AC611848083D03
:102FC000FEF7B8FD002801D0FEF78EFA3567AE6235
:102FD000144D1248294614382860032068601020D8
:102FE000083191C16C61AC61EC6128462C62FEF73E
:102FF000A1FD002801D0FEF777FAF5660022114600
:103000001B20AE62FEF766FF1B20FEF757FF07B0DE
:10301000F0BD0000003801400010024030000240C6
:10302000040200204C020020FFB50446806F83B0EC
:1030300017460D4620285ED1002D0AD0002F08D05B
:10304000A168C001814207D12069002804D1E807A6
:1030500002D0012007B0F0BD204660300090007D16
:10306000012848D0009801210175002080210851D5
:103070002120A067FEF7D2FE264640360190378217
:1030800077820120A1680003814202D120690028D3
:1030900005D02F46002500990020087511E0002773
:1030A000F9E700228021204600F09AFC002815D183
:1030B000002F15D02168387888627F1C708A401EE6
:1030C0007082708A019B002806980090E9D1002246
:1030D0004021204600F084FC002808D00320B9E7F6
:1030E00028882168C005C00D8862AD1CE6E7202055
:1030F000A0670020AEE70220ACE77047FEE70000C3
:103100001CB5002128480091264A01910260012245
:10311000C16312054260816001230322036182635F
:103120000246C16020321170FF245170C2344462E3
:103130008162117301638161042243634261C16151
:10314000FEF798FA002801D072B6FEE71748009003
:1031500001200003019069461348FEF721FA002878
:1031600001D072B6FEE71248009069460E48FEF79D
:1031700017FA002801D072B6FEE70E4800906946A3
:103180000948FEF70DFA002801D072B6FEE70A489A
:10319000009069460448FEF703FA002801D072B691
:1031A000FEE71CBD002401401C000020000200249A
:1031B0000008002C0010003000200034F0B587B06B
:1031C00014216846FDF758F92B48C26A04210A43C6
:1031D000C262C26A0A400592C16A01252943C162DE
:1031E000C16A29400591C26A02210A43C262C06ACB
:1031F000002208400590052020210007FEF708FE68
:1032000013273F02002239461C48FEF701FE052124
:10321000002289021A48FEF7FBFD00242026052023
:10322000029469460007009601950394FEF710FD8D
:10323000029469461148009701950394FEF708FD32
:1032400005208002009002946946019503940C4881
:10325000FEF7FEFC10200090019469460294074896
:10326000FEF7F6FC69460548009602950194FEF7C4
:10327000EFFC07B0F0BD0000001002400004005059
:103280000008005010B586B0002400941649174875
:103290000194029403940494059412C004601449A8
:1032A000846041608021C1600838FFF799FA0028E6
:1032B00001D072B6FEE701200003009069460B487A
:1032C000FFF70AFB002801D072B6FEE7202004A910
:1032D00011C106480839FFF757FA002801D072B625
:1032E000FEE706B010BD000000080140F800002015
:1032F000FFFF000010B58AB00024049405940694E2
:10330000079408940121234809940094019402949D
:103310008907039412C07D21046009018460416023
:103320008021C1600838FFF75BFA002801D072B62F
:10333000FEE701200003049004A91648FFF7CCFA29
:10334000002801D072B6FEE71248FFF756FC0028AD
:1033500001D072B6FEE7089408A90E480994FFF759
:1033600013FA002801D072B6FEE7602000906420B6
:10337000019002940022694603940648FFF7D5FBAA
:10338000002801D072B6FEE70248FFF7A7FB0AB09B
:1033900010BD00007800002010B50C480A490160FB
:1033A000E1214902416000218160C16001618161C8
:1033B000C1610C22016242614162FFF797FD002862
:1033C00001D072B6FEE710BD003801403801002080
:1033D000FEE77047704710B5FEF726FD10BD0000F0
:1033E00030B59DB038216846FDF746F8142117A87E
:1033F000FDF742F824210EA8FDF73EF81A480168AF
:103400000322D2029143C214891801600220009065
:103410000A90400401250C9003950001102100241E
:103420000D900B9404916846FEF74EFF002801D0E2
:1034300072B6FEE70F2017900320189019941A9483
:1034400001211B9417A8FEF715FE002801D072B6C3
:10345000FEE70EA80E951194FEF740FD002801D05E
:1034600072B6FEE71DB030BD00700040704700002E
:1034700010B50448FFF79FFA052020210007FEF74A
:10348000BFFC10BDF800002010B50248FFF793FA0A
:1034900010BD00007800002010B50248FFF78BFA3D
:1034A00010BD0000B800002070B5026801239B0722
:1034B000114C124D984203D0A04201D0A84203D132
:1034C0007026B2434E683243984203D0A04201D0E6
:1034D000A84204D103231B029A43CB681A438023DA
:1034E0009A430B691A4302608A68C2620968816262
:1034F0000121416170BD000000080140001401403D
:1035000030B58468FF252D021B021343AC430B43E7
:103510002343836030BD826870239A430A430721A6
:103520000A438260704730B5026A52085200026254
:10353000026A456883697024A3439C080B68A40051
:1035400023430224A2438C68456014438361496885
:103550004163046230BD30B5026A10239A430262AF
:10356000036A4568826973242402A2430C6824021A
:103570001443202293438A68456012011A438461F0
:1035800049688163026230BD30B5026AFF230133AE
:103590009A430262026A4568C3697024A3439C0887
:1035A0000B68A400234301246402A2438C68456095
:1035B00024021443C3614968C163046230BD30B55D
:1035C000026A01231B039A430262036A4568C269C7
:1035D00073242402A2430C682402144301225203E0
:1035E00093438A68456012031A43C46149680164C1
:1035F000026230BD30B5036A046A64086400046284
:103600008469F025AC43120122430A24A3430B43EF
:103610008261036230BD30B5036A1024A3430362A4
:103620008469036A0F252D031203AC432243A024AF
:10363000A343090119438261016230BD10B5818C39
:10364000C90707D001684A6801235B049A43836A6B
:103650001A434A60818C890707D501684A680123AB
:103660001B049A43C36A1A434A60818C490707D5F1
:1036700001684A6801239B049A43036B1A434A601A
:10368000818C090707D501684A680123DB039A4347
:10369000436B1A434A60818CC90607D5026891685A
:1036A00001231B039943836B19439160818C890625
:1036B00007D501688A6801235B039A43C36B1A43E9
:1036C0008A60818C490612D503685A680121090570
:1036D000046C8A4322435A60026C8A4207D1026812
:1036E000516803235B059943436C19435160818CF6
:1036F000090607D501684A680123DB04806C9A43F8
:1037000002434A6010BD0000F8B504460026803030
:103710000660FEF783FB054620680068124F00072D
:1037200009D501212B46002249052046009700F0CB
:1037300057F900280DD12068006840070BD50121FA
:103740002B46002289052046009700F049F9002801
:1037500001D00320F8BD2020A067E0672666603412
:1037600026750020F8BD0000FFFFFF0110B5806A3C
:103770000022014640314A834A82FFF763FA10BDB6
:1037800010B5EFF31081012282F3108802681368EC
:10379000FF242134A343136081F31088EFF31081D9
:1037A000012282F31088026893685B085B009360D3
:1037B00081F31088016E01290BD1EFF310810122F2
:1037C00082F31088026813681024A343136081F306
:1037D00010882021C16700210166416610BD0000EC
:1037E000F8B50446016880682369E669184363698F
:1037F000002533431843724A0B68724E334003432B
:103800000B602168486803231B039843E36818434F
:1038100048602168A069914201D0236A18438B68EF
:103820000B263602B34303438B606749236867481E
:103830008B420CD1C0688007800F06D0012839D098
:10384000022835D0032821D11EE001271FE060495E
:103850008B420AD1C0680C21084027D0042829D007
:10386000082825D00C2811D10EE093420ED1C16852
:1038700003208002014019D001208002091A19D0CA
:10388000091A15D0814201D1082700E010274F49BD
:10389000504840398600934232D1002F0CD0022F7D
:1038A0000DD0042F10D0082F7FD126E00027EEE79F
:1038B0000227ECE70427EAE7FEF7AAFC06E009681E
:1038C000C90605D4304603E0FEF7C2FC002872D0DA
:1038D000626851005118814267D81103814264D354
:1038E000010E06025008002330185941FCF766FC0F
:1038F00003210902411A384A55E00120C003E7E7D5
:103900000122E369D20393422BD13B0000F0F2F88D
:103910000906090C4D114D4D4D274D00FEF778FC61
:1039200009E0FEF785FC06E00968C90605D43046C3
:1039300003E0FEF78DFC00283DD0616840004A0896
:103940008018FCF79BFD80B20146244A1039914251
:103950002BD8511C01400007400F084329E01046B6
:10396000EBE73B0000F0C6F80906090C2112212103
:1039700021232100FEF74CFC0AE0FEF759FC07E08A
:103980000968C90606D4304604E00EE0FEF760FC84
:10399000002810D061684A081018FCF76FFD80B24B
:1039A00001460E4A1039914203D9012503E0104621
:1039B000F0E72168C86000206066A0662846F8BD70
:1039C00000480040F369FFEF00380140401002401A
:1039D0000044004000093D00FFFC0F00EFFF000025
:1039E000FFB581B005461746044660350A9E55E08E
:1039F000701C53D0FEF712FA0499401AB04230D826
:103A0000002E2ED020680168490747D5C069C04301
:103A1000000543D401202168C0020862EFF3108042
:103A2000012181F3108821680B68FF22A1329343A2
:103A30000B6080F31088EFF31080012181F3108870
:103A400021688A68520852008A6080F3108820201A
:103A5000A067E0678034206000202875032005B04F
:103A6000F0BDEFF31080012181F3108821680B680D
:103A7000FF22A13293430B6080F31088EFF3108094
:103A8000012181F3108821688A68520852008A60F7
:103A900080F310882020A067E067DDE72068C16917
:103AA0000298884304D00020B842A1D00020D6E775
:103AB0000120F9E710B50248FFF7C6F810BD000075
:103AC00038010020F8B5040C8BB2264682B25E4362
:103AD0000D0C1046370C58433604801900217941EB
:103AE00016466E43370C36048019794126466E43DC
:103AF0008919F8BD30B47446641E2578641CAB4245
:103B000000D21D46635D5B00E31830BC184700001F
:103B10004900CA020243100000D004204A0D01D01F
:103B200001221043044A490D914201D10221084368
:103B3000012800D105207047FF0700008307FF22FE
:103B4000DB0E9A408907090E9940002808DB83089C
:103B500009489B001B181868904308431860704779
:103B60000007000F0838830804489B001B18D86919
:103B700090430843D861704700E400E000ED00E0A6
:103B800030380A2801D20120704700207047000019
:103B9000A4B000200590029001900090FEF74CF92F
:103BA000FFF71EFCFFF70AFB0024614803945F49FE
:103BB000049401605F49846041608911C160802183
:103BC0004161FEF70DFE002801D072B6FEE720200D
:103BD00003900020049003A95548FEF7D5FD002866
:103BE00001D072B6FEE75448016B01221143016314
:103BF000006B10400022039011460920FEF76AF97D
:103C00000920FEF75BF9002211460A20FEF762F94F
:103C10000A20FEF753F9FFF7BFFBFFF76BFBFFF737
:103C200031FBFFF76DFA4248FEF730FE4048403066
:103C3000FEF72CFE3E4800219C38FDF757FC3C481F
:103C400004223E499C38FDF74DFEFF20F530FDF77C
:103C5000EDFF3A48801E01780029FAD0002707704E
:103C600033489C38FDF78EFE344908884888002682
:103C700009968888C888354634463846059900F044
:103C8000C1F82F4FB8422ADA0999059800F0BAF81E
:103C9000B84224DA2046029900F0B4F8B8421EDA9D
:103CA0002146029800F0AEF8B84218DA2846019989
:103CB00000F0A8F8234FB84211DA2946019800F025
:103CC000A1F8B8420BDA3046009900F09BF8B842F0
:103CD00005DA3146009800F095F8B84215DB00236C
:103CE000059304930293039300931A4616490BA875
:103CF0000193FCF7E5FA0BA8FCF77EFB82B20C48B7
:103D000064230BA98030FFF78FF90998009605907E
:103D10000A49019502940020088048808880C88064
:103D2000034804229C38FDF7DDFD92E700100040B7
:103D3000B8000020FF7C00000010024002000020BC
:103D4000CDCC4C3DCDCCCC3D9C3F000810B50029DE
:103D50000AD00878002807D005487844FDF75AFAB9
:103D6000002801D0002010BD0248784410BD00009A
:103D7000AE020000A602000070B501250400ED07A8
:103D80004C4020D4441A01D2001B0919C60D4B0027
:103D9000F2B2FF2A29D01B0E2CD000020C02D31A3B
:103DA0002C43DC402843051910D2280A02D3401CBA
:103DB0006D0611D0761EF6058019FF2A00DA70BD57
:103DC000C00DC00570BD694000F022F80120054318
:103DD000C541521C761CE8E764089C40C90161405B
:103DE0008900E7D10124A043E4E71B0E440200D080
:103DF000034870BD002AFCD1C00FC00770BD00BFD2
:103E00000000C07F70B501250400ED074C4022D4AE
:103E1000441A02D26C40001B0919C60D4B00F2B2C5
:103E2000FF2A4BD01B0E50D000020C02D31A2C4399
:103E3000DC40A843051B05D5AD0019D36D08761EDF
:103E4000521E37D0F605280A01D2801970BD704184
:103E50006D0603D070BD6940FFF794FF9C400902D6
:103E60006140490001D0401E70BD0124A04370BDD7
:103E70006D081DD001202B0C01D12D0410302B0E0C
:103E800001D12D0208302B0F01D12D01001DAB0FE8
:103E900001D1AD00801CEB0F01D16D00401C6D0005
:103EA000361A121A680AF5054019012A02DB70BD9C
:103EB000002070BDC036300AC00770BD1B0E440222
:103EC00001D1FF2B00D1024870BD002AF0D070BD97
:103ED0000000C07F03B402487844844603BC6047B6
:103EE0009FC8FFFF00000000000000000102030463
:103EF00006070809030406080C101820300000000B
:103F0000000102030400000002400000000000A0C5
:103F10000000000005400000000000C80000000094
:103F20000C4000000000409C000000001940000010
:103F30000020BCBE0000000034400000BFC91B8E42
:103F400000000004B5400000504BCFD06607E2CF20
:103F5000010000006C4100003E8251AADFEEA73450
:103F600001000000D9420000DCB5A0E23A301F9702
:103F7000FFFFFFFFB4450000FD25A0C8E9A3C14F26
:103F8000FFFFFFFFFF3F0000000000800000000077
:103F9000FF3F00000000008000000000414443207B
:103FA000436839203D20252E3266205609094144B8
:103FB000432043683131203D20252E3266205609AA
:103FC000094144432043683132203D20252E32668A
:103FD000205609094144432043683133203D2025C0
:103FE0002E326620560A00002440000800000020FF
:103FF0001C00000004010008404000081C000020D4
:10400000DC080000200100081C0000004300000044
:10401000F8FFFFFF0C0000000E0000000F00000082
:104020002E00000000000000000000000000000062
:10403000010000000400000000000000000020005B
:04000005080000C12E
:00000001FF
