:020000040800F2
:100000004808002065010008091D0008FF1A0008C3
:1000100000000000000000000000000000000000E0
:100020000000000000000000000000000D1D00089E
:1000300000000000000000000B1D00080F1D00085C
:1000400077010008770100087701000877010008B0
:1000500077010008770100087701000877010008A0
:100060007701000877010008A5040008770100085F
:10007000770100087701000800000000C11D00089A
:1000800000000000D11D000800000000000000007A
:10009000A91D000800000000770100087701000892
:1000A000770100087701000877010008052400089F
:1000B0007701000877010008770100087701000840
:1000C00000F002F800F03EF80CA030C80838241800
:1000D0002D18A246671EAB4654465D46AC4201D180
:1000E00000F030F87E460F3E0FCCB6460126334274
:1000F00000D0FB1AA246AB46334318477C240000CD
:100100009C240000103A02D378C878C1FAD852076C
:1001100001D330C830C101D504680C6070470000BD
:100120000023002400250026103A01D378C1FBD813
:10013000520700D330C100D50B6070471FB51FBDFB
:1001400010B510BD00F07BF91146FFF7F7FF02F084
:10015000A9F900F093F903B4FFF7F2FF03BC00F034
:1001600099F900000748804707480047FEE7FEE787
:10017000FEE7FEE7FEE7FEE704480549054A064BB1
:1001800070470000A51D0008C100000848020020BB
:10019000480800204804002048040020FEB5054619
:1001A00010460C46184373D0AE468C460020AD1A5C
:1001B00001469C4167D36646002701243D46B61A96
:1001C0009D4102D313463A462124654676462F04C4
:1001D000360C3E432D0CB61A9D4104D3150C1B045E
:1001E0002B4312041034654676462F06360A3E43EA
:1001F0002D0AB61A9D4104D3150E1B022B43120281
:100200000834654676462F0736093E432D09B61A4F
:100210009D4104D3150F1B012B431201241D65467C
:100220007646AF07B6083E43AD08B61A9D4104D3E3
:10023000950F9B002B439200A41C65467646EF0762
:1002400076083E436D08B61A9D411AD392185B4159
:10025000641C16E00018764665464941B71A9D4170
:100260000191009009D36046B11A98418E468446A8
:10027000009801990025401C6941DD0752082A4376
:100280005B08641EE6D57246634603B0F0BDFFE727
:1002900000200146C046C0462A462346F5E701E055
:1002A00004C0091F0429FBD28B0701D50280801CE2
:1002B000C90700D00270704700290BD0C30702D0D5
:1002C0000270401C491E022904D3830702D5028014
:1002D000801C891EE3E70022EEE70022DFE7002210
:1002E00003098B422CD3030A8B4211D300239C4673
:1002F0004EE003460B433CD4002243088B4231D3EB
:1003000003098B421CD3030A8B4201D394463FE07E
:10031000C3098B4201D3CB01C01A524183098B42DE
:1003200001D38B01C01A524143098B4201D34B01C7
:10033000C01A524103098B4201D30B01C01A52412A
:10034000C3088B4201D3CB00C01A524183088B42B1
:1003500001D38B00C01A524143088B4201D34B009A
:10036000C01A5241411A00D201465241104670470C
:100370005DE0CA0F00D04942031000D34042534011
:1003800000229C4603098B422DD3030A8B4212D3D1
:10039000FC22890112BA030A8B420CD38901921103
:1003A0008B4208D3890192118B4204D389013AD040
:1003B000921100E08909C3098B4201D3CB01C01A15
:1003C000524183098B4201D38B01C01A5241430928
:1003D0008B4201D34B01C01A524103098B4201D316
:1003E0000B01C01A5241C3088B4201D3CB00C01A83
:1003F000524183088B4201D38B00C01A5241D9D29B
:1004000043088B4201D34B00C01A5241411A00D21B
:100410000146634652415B10104601D34042002B17
:1004200000D54942704763465B1000D3404201B596
:100430000020C046C04602BD7047704770477546F1
:1004400000F024F8AE46050069465346C008C000D7
:10045000854618B020B5FFF78FFE60BC002749081D
:10046000B6460026C0C5C0C5C0C5C0C5C0C5C0C54C
:10047000C0C5C0C5403D49008D46704710B5044613
:10048000C046C0462046FFF766FE10BD00487047D4
:10049000E401002001491820ABBEFEE7260002005F
:1004A0007047000010B5034800F052F8024800F011
:1004B0004FF810BD9C0100205401002072B6FEE7E9
:1004C00030B5014620314A790023022A04D00422A3
:1004D000C2630B71012030BD026814680E25AC4365
:1004E000146002681468640864001460446C1C2280
:1004F000144001221546006CA54045604A7118461B
:100500000B7130BD70B50024014620314A79022AB2
:1005100003D00421C163012418E0026813680E258A
:10052000AB431360026813685B085B001360436CA5
:100530001C221340012215469D40036C5D604A71E8
:1005400000220A71816B002900D08847204670BDC7
:10055000F0B4016C0D6801680C68466C1C23042221
:100560001E401746B7402F420ED067070CD50C68C7
:10057000A40602D40C6894430C60416C19408A4074
:10058000016C4A60016B1AE00227B74002462F4017
:100590002032002F17D0A70715D50C68A40605D464
:1005A0000C680A25AC430C6001215171446C022196
:1005B0001C40036CA140596000211171C16A0029DF
:1005C00018D0F0BC08470827B7402F4212D02407A4
:1005D00010D50C680E25AC430C60446C01211C4006
:1005E0000B46A340046C6360C1635171002111711B
:1005F000416BE4E7F0BC704770B504003CD01F4885
:10060000256814212818FFF76AFE800060641C48E2
:100610002064022120462030024641712968194891
:10062000E3680140A06866691843236933431843AF
:10063000A3691843E3691843236A184308432860F1
:100640000121A0688903884210D00D488030836A58
:10065000656C1C210D400F26AE40B3438362656C70
:1006600063680D40816AAB400B4383620020E06306
:1006700001215171107170BD012070BDF8FFFDBFE7
:10068000000002400F80FFFF70B5044600F0F4F850
:100690000546601C02D004480078241800F0ECF8ED
:1006A000401BA042FAD370BD00000020F8B5002323
:1006B00003240125BDE032462E469E40B44632401A
:1006C00079D00E79B607B60F012E01D0022E17D1C0
:1006D00086682746B6465E00B74000967646BE431B
:1006E000B646CF68009EB740764637438760466877
:1006F0006746BE430F79FF06FF0F9F4037434760B1
:100700000E79F643B6070ED0C6682746B4465E009B
:10071000B646B7406646BE43B4468F687646B74095
:1007200066463743C7600E79B607B60F022E14D15E
:10073000DE08B60036180096366A5F07B446FE0E2D
:100740000F27B646B7406646BE43B4460F697646A5
:10075000B74066463743009E376206682746B44670
:100760005E00B646B7406646BE430F79B446BF0743
:10077000BF0F7646B7406646374307604E68B603FC
:10078000B60F55D02E4F7E6B2E437E639F082D4EA5
:10079000BF00BE190096B6680F27B4469E07360FF5
:1007A000B646B7406646BE4305273F07B446B84243
:1007B00002D1002715E03BE0234FB84201D10127C9
:1007C0000FE0224FB84201D102270AE0204FB84281
:1007D00001D1032705E01F4FB84201D1052700E0F2
:1007E00006277646B74066463743009EB7601A4EE6
:1007F00036684F689643FF0300D51643164F3E6098
:100800007E684F689643BF0300D51643124F7E6043
:10081000BE684F689643FF0200D516430E4FBE6078
:10082000FE684F689643BF0200D516430A4AD66059
:100830005B1C0A681646DA4000D03CE7F8BD0000B1
:100840000010024000000140000400500008005069
:10085000000C0050001C0050000401404269134687
:100860000B401B0491430B4383617047002A01D066
:10087000816170478162704701488068704700005D
:100880000000002002488168027889188160704762
:100890000000002010B508480024016840221143E0
:1008A0000160032000F00AF8002801D0012401E0D3
:1008B00000F026F8204610BD0020024070B5044626
:1008C0000D4D7D202978C000FFF709FD01460B483A
:1008D0000068FFF704FD00F06DFC002809D1042C2E
:1008E00007D200222146401E00F022F800206C6052
:1008F00070BD012070BD0000000000200C00002031
:100900000448416B012211434163816B020411438E
:100910008163704700100240002805DBC106C90E44
:1009200001208840014908607047000000E100E0B4
:1009300010B501F095FD10BDF8B50446006800271C
:10094000604D810601D400057ED55E4E403EB06B01
:10095000C00004D4B06B31040843B06301275A4887
:100960000168C90511D40168821511430160FFF7C0
:1009700083FF009005E0FFF77FFF0099401A64288D
:1009800044D851480068C005F5D5316803200005FA
:10099000626801401040884205D10323A0681B050E
:1009A0001840884208D09003800F032804D1306893
:1009B000800301D50120F8BD2869032109040840FE
:1009C00029D00A40824202D02278920606D4A26838
:1009D0000A4082421FD0208800051CD528692A6958
:1009E00088430121C9040A432A612A698A432A618A
:1009F0002861C0050FD5FFF73FFF009008E0FFF723
:100A00003BFF0099411A3148814201D90320F8BDCA
:100A100028698005F3D561688803800F032805D114
:100A200032680005824301400A433260286903228C
:100A300061681204114008432861002F06D0B16B91
:100A400001200007814300E000E0B1632078C00787
:100A500005D0E868E168800880000843E8602078F5
:100A6000800705D5E8680C21884321690843E860C0
:100A70002078400706D5E868032189028843616928
:100A80000843E8602078000706D5E86803210903D9
:100A90008843A1690843E8602078400606D5E868E5
:100AA000012189068843216A0843E860207800060E
:100AB00006D5E868032189048843E1690843E860B2
:100AC0000020F8BD40100240007000408813000074
:100AD000F8B50E46050038D05E480068C007C00F64
:100AE000B04214D25B4C2068400840003043206084
:100AF000FFF7C2FE074605E0FFF7BEFEC11B5648E2
:100B000081427AD82068C007C00FB042F4D128785B
:100B1000524C800705D5E068F0218843A968084356
:100B2000E0602878C00752D06868022806D0032801
:100B300007D0216801280AD0890504E021688903CB
:100B400001E021688901002903DB0120F8BD490784
:100B5000F9E7E168890889000143E160FFF78CFE4D
:100B60000746686802280AD0032814D001281ED03E
:100B700029E0FFF781FEC11B374881423DD8E0687C
:100B80000007800F0228F4D121E0FFF775FEC11B9A
:100B90003148814231D8E0680007800F0328F4D142
:100BA00015E0FFF769FEC11B2B48814225D8E0689C
:100BB0000007800F0128F4D109E0FFF75DFEC11B9B
:100BC0002548814219D8E0680007800FF5D12148F7
:100BD0000168C907C90FB14217D90168490849001E
:100BE00031430160FFF748FE074608E005E0FFF7E4
:100BF00043FEC11B1848814201D90320F8BD1548A6
:100C00000068C007C00FB042F1D12878400706D570
:100C1000E068072109028843E9680843E060287812
:100C2000000707D5E0680721C90288432969C90080
:100C30000843E06000F03AF8E168094A0906090F44
:100C4000515CC8400749086007480068FFF736FE56
:100C5000F8BD000000200240881300000010024090
:100C6000542500080C000020040000200448054919
:100C70000068C968044A4905490F515CC84070477B
:100C80000C000020001002406D25000804480549B2
:100C90000068C968044A8904490F515CC84070471C
:100CA0000C000020001002406D25000870B51A4AA3
:100CB000D3681A490C2018408D0004280CD04E002F
:100CC000082810D00C2810D050680004410F0120D3
:100CD000C003491C884070BD1068C00601D5084695
:100CE00070BD284670BD304670BD98020C4C000F98
:100CF000205C1B029C0FD368641CDB0301D53146CA
:100D000003E01268D20600D4294601F083FB224694
:100D10000023FFF743FA70BD0010024000093D00B8
:100D200064250008FEB505007ED0FE4CE7680C2067
:100D3000E66807400120000406402878C00747D035
:100D4000082F05D00C2F0AD101200004864206D1BD
:100D5000206880033CD568680028E5D038E0012091
:100D600069680004814203D121680143216011E0D8
:100D7000052301221B0492049942216802D11143E8
:100D80002160F1E7814321602168014000912068E2
:100D900090432060686800280DD0FFF76DFD00903B
:100DA00005E0FFF769FD0099401A64287BD82068A8
:100DB0008003F6D50CE0FFF75FFD009005E0FFF73C
:100DC0005BFD0099401A6428F0D820688003F6D4AF
:100DD0002878800756D50923E868042F0DD00C2FFA
:100DE00001D1002E09D000283CD02168994301434D
:100DF0002160FFF741FD064628E02168490701D53B
:100E0000002891D061681F22120291432A691202C0
:100E1000114361602168994301432160FFF746FF58
:100E2000E16809060A0F00E0BFE1BF49895CC840DC
:100E3000BE490860BE480068FFF740FD002873D136
:100E400020E0FFF719FD801B0228AFD8206840077B
:100E5000F7D560681F210902884329690902084300
:100E600060600FE02068400840002060FFF704FD4C
:100E7000064604E0FFF700FD801B022896D8206894
:100E80004007F7D42878C00660D5002F0CD0E86959
:100E900000284AD02068FF21013108432060FFF775
:100EA000EBFC06462EE0E5E02068800502D5E86907
:100EB0000028A6D06068072149038843696A08436F
:100EC00060606068298C0002000A090608436060BF
:100ED000686A410B0120C003491C8840E16809068B
:100EE0000A0F9149895CC8409049086090480068A1
:100EF000FFF7E4FC002817D128E0FFF7BDFC801BBA
:100F00000228A2D820688005F7D560680721490328
:100F10008843696A084360606068298C0002000A9F
:100F200009060843606011E025E12168FF200130D7
:100F300081432160FFF7A0FC064604E0FFF79CFC1C
:100F4000801B02289AD820688005F7D42878794E2B
:100F5000000724D568690028306910D001210843B2
:100F60003061FFF789FC009005E0FFF785FC0099F0
:100F7000401A02287ED830698007F6D50FE0400875
:100F800040003061FFF778FC009005E0FFF774FC4B
:100F90000099401A02286DD830698007F6D4287865
:100FA000400764D500200290A06BC00006D4A06B5F
:100FB000012109070843A063012002905E480168EF
:100FC000C90511D40168821511430160FFF754FC73
:100FD000009005E0FFF750FC0099401A642849D8BA
:100FE00055480068C005F5D5FF20AA680130824247
:100FF00003D131690143316111E001218902002AE5
:1010000007D005231B029A4203D132690A43326199
:10101000EFE7326982433261306988433061A86802
:1010200000280ED0FFF728FC009006E0FFF724FC14
:101030000099411A414881421CD830698005F5D594
:101040000DE0FFF719FC009006E0FFF715FC009992
:10105000411A3A4881420DD830698005F5D402988A
:10106000002804D0A16B012000078143A1632878E8
:10107000800600E07EE02ED53148A969431400299E
:1010800016D0A26801210A43A260626B0A43626320
:10109000016A19430162FFF7EFFB064604E0FFF720
:1010A000EBFB801B022865D8A0688007F7D512E00B
:1010B000A16849084900A160016A99430162FFF7EC
:1010C000DBFB064604E0FFF7D7FB801B022851D864
:1010D000A0688007F7D4A86A002868D00C2F4FD0EA
:1010E000012636060228206805D0B0432060FFF7AD
:1010F000C3FB054640E0B0432060FFF7BDFB074659
:1011000004E0FFF7B9FBC01B022833D82068800138
:10111000F7D4296BE86AE2680843696BFD231B0476
:101120009A430FE000100240542500080C000020F4
:1011300004000020401002400070004088130000AE
:101140000000014011430843E06020683043206004
:10115000FFF792FB054604E0FFF78EFB401B0228D9
:1011600008D820688001F7D521E0FFF785FB401BF8
:10117000022801D90320FEBD20688001F5D416E0C5
:101180000128F8D0E06801210904EA6A014091428F
:101190000BD10F2189042A6B0140914205D1032113
:1011A00089050840696B884201D00120FEBD0020FE
:1011B000FEBD0000094910B5401E884201D901203A
:1011C00010BD074C60610321081F01F049F90020A0
:1011D000A06107202061002010BD0000FFFFFF007C
:1011E00000E000E0F0B502462032137E012B1ED055
:1011F000012515760223537606687468B368702754
:10120000BC430F68274377600068AC07A04205D055
:10121000084CA04202D0084CA04204D18024496866
:10122000A34319438160557600201076F0BD02205B
:10123000F0BD0000000801400014014070B5050039
:1012400005D02C462034607E002802D006E0012024
:1012500070BD00202076284600F010F8022060764D
:10126000291D286800F0BCFD0120A077A076E0765B
:10127000207760776076002070BD000010B50122F5
:1012800001689207154891420AD1816B01221143EE
:101290008163002211460F20FFF74AFB0F200CE06C
:1012A0000F4A91420CD1816B1022114381630022BD
:1012B00011461120FFF73CFB1120FFF72DFB10BD5D
:1012C000084A9142FBD1416B042211434163002241
:1012D00011461420FFF72CFB1420EEE7001002400B
:1012E0000010004000080140014620314A7E012ADA
:1012F00001D00120704702224A760268D36801219A
:101300000B43D36000688A07904205D0074A904299
:1013100002D0074A904204D182685207520F062A2F
:1013200002D002680A4302600020704700080140B2
:1013300000140140F8B5054604462035287E0026F5
:10134000012817D00120287602206876226890684C
:101350007727FF23B8431B02984390600868502802
:1013600038D00EDC20284FD006DC00284CD01028C6
:101370001ED149E00220F8BD302845D0402817D1C1
:101380003AE060282ED0702819D001221203801A6A
:101390000FD090420CD1CB684A688968206800F071
:1013A00058FD20688168012292031143816000E0AA
:1013B000012601206876002028763046F8BDCB68EB
:1013C0004A688968206800F044FD216888683843CD
:1013D0008860EEE7CA684968206800F0B4FD5021D3
:1013E000206806E0CA684968206800F0BDFD6021F9
:1013F000206800F039FDDCE7CA684968206800F021
:10140000A2FD40212068F4E7226801461046F0E77B
:10141000704770B50446006801690025C943890713
:10142000002915DBC168C943890711D4E91E016190
:1014300001202076206880698007204602D0FFF7CF
:10144000E7FF04E000F09CF8204600F022F9257642
:1014500020680169C943490717D4C168C9434907CE
:1014600013D40421C94301610220207620688069D9
:101470008005800F204602D0FFF7CAFF04E000F08D
:101480007FF8204600F005F9257620680169C943F8
:10149000090716D4C168C943090712D40821C943F2
:1014A0000161042020762068C0698007204602D0B0
:1014B000FFF7AEFF04E000F063F8204600F0E9F823
:1014C000257620680169C943C90617D4C168C94394
:1014D000C90613D41021C943016108202076206871
:1014E000C0698005800F204602D0FFF791FF04E01D
:1014F00000F046F8204600F0CCF825762068016917
:10150000C943C90708D1C168C943C90704D1891EA5
:101510000161204600F0FCF820680169C9434906D2
:1015200009D4C168C943490605D44021C9430161B2
:10153000204600F0EEF870BD10B586B004461421C8
:101540006846FEF7CAFE012120688907884213D148
:101550000A48C26A01210A43C262C06A0091084077
:101560000590022000210190039004900291052033
:1015700069460007FFF79AF806B010BD0010024058
:101580007047F8B5064604462036307E00270D46E3
:1015900001280ED001203076002A0CD0042A1BD05E
:1015A000082A2FD00C2A3ED001270020307638465A
:1015B000F8BD0220F8BD206800F05EFC206881695B
:1015C0000822114381612068826904218A43826173
:1015D00020688169EA6812E0206800F065FC2068F4
:1015E00082690121C9020A4382612068816901225E
:1015F00092029143816120688169EA681202114375
:101600008161D2E7206800F068FC2068C169082287
:101610001143C1612068C26904218A43C261206804
:10162000C169EA6812E0206800F072FC2068C169B4
:101630000122D2021143C1612068C26901218902DD
:101640008A43C2612068C169EA6812021143C1611C
:10165000ABE770B5050005D02C462034607E00282D
:1016600002D006E0012070BD00202076284600F060
:101670000FF802206076291D286800F0B1FB0120D8
:10168000A077A076E076207760776076002070BD46
:101690007047704770B505462C460220203400295B
:1016A00008D004290BD008290ED0627F012A10D05F
:1016B000012070BDA27E012AFAD1A0760AE0E27E66
:1016C000012AF5D1E07605E0227F012AF0D12077CA
:1016D00000E060770122286800F0AEFB0122286854
:1016E00092070121904205D0074A904202D0074A52
:1016F000904204D182685207520F062A02D0026833
:101700000A430260002070BD00080140001401403F
:10171000704770477047704770470000F8B502681F
:101720000446D06911689668A24B05461D402023E7
:10173000002D75D0F707A04DFF0FBC460D402F437D
:101740006DD02546C7078035002F06D0CF0504D5BC
:10175000012717622A683A432A60820708D5F207F0
:1017600006D0276802223A622A6804273A432A6090
:10177000420708D5F20706D02668042232622A689A
:10178000022632432A6002070AD50A461A406646F4
:10179000324305D02668082232622E6816432E6036
:1017A000020508D54A0106D501222668D202326216
:1017B0002A681A432A602A68002A39D0800606D58A
:1017C000880604D5616E002901D020468847286824
:1017D00021688968490602D4282108422DD0204674
:1017E00000F076FC21688868400622D5EFF310806F
:1017F000012282F310888B68402293438B6080F330
:101800001088206F002814D06C498163206FFEF788
:1018100079FE00280CD0206F816B08E000E012E018
:10182000850610D58D060ED5616EA9E02046884745
:10183000F8BD2046FFF770FFF8BD2046FFF76CFFAC
:1018400000202860F8BD256E012D7CD1C5067AD513
:10185000CD0678D510261662226890682546400687
:101860004035002846DA216F086840680004000C03
:10187000E8D02F8B8742E5D9688308680068800626
:1018800033D4EFF31080012181F310881168370100
:10189000B943116080F31088EFF31080012181F3C8
:1018A000108821688A68520852008A6080F3108884
:1018B000EFF31080012181F3108821688A684027A6
:1018C000BA438A6080F31088E36700202066EFF354
:1018D0001080012181F3108821680A68B2430A60F0
:1018E00080F31088206FFEF7EBFD288B698B401A80
:1018F00081B231E0288B698B401A81B2688B002855
:10190000A0D000299ED0EFF31080012585F3108828
:101910001568FF272137BD43156080F31088EFF36A
:101920001080012282F31088226895686D086D008E
:10193000956080F31088E367002020666066EFF30F
:101940001080012200E00BE082F310882268136807
:10195000B343136080F310882046FFF7DBFEF8BD29
:10196000C50208D5750206D5012000051062204683
:10197000FFF7D1FEF8BD050606D50D0604D5A16E0C
:10198000002900D052E7F8BD4006FCD54806FAD53C
:101990002046EFF31081012484F310881468402559
:1019A000AC43146081F3108883670021816600F0E6
:1019B000A5F8F8BD0F08000020010004BD200008B4
:1019C00010B5040003D0A06F002802D007E001206A
:1019D00010BD002174200155204600F027F8242076
:1019E000A06720680168490849000160204600F0AE
:1019F0009FFB0128ECD0606A002802D0204600F04E
:101A0000C6FA206841680922D202914341602068E9
:101A100081682A2291438160206801680122114374
:101A20000160204600F018FB10BD0000F0B587B043
:101A3000064614216846FEF750FC2B493068884260
:101A40004FD12A48416B0122920311434163C16A7D
:101A500001221143C162C06A002410400590032096
:101A6000400200900220032701A991C104200490A4
:101A7000052069460007FEF719FE1E4D1C48AC60A4
:101A8000EC6081C5EC602C6180276C61AF60AC615B
:101A90001848083DFEF7B0FD002801D0FEF70EFD06
:101AA0003567AE62144D1248294614382860032069
:101AB00068601020083191C16C61AC61EC6128460E
:101AC0002C62FEF799FD002801D0FEF7F7FCF566C1
:101AD000002211461B20AE62FEF72AFF1B20FEF7F4
:101AE0001BFF07B0F0BD00000038014000100240AD
:101AF00030000240540100209C0100207047FEE7A6
:101B0000F0B587B014216846FEF7E7FB2848C16AA4
:101B100001252943C162C16A29400591C26A022197
:101B20000A43C262C26A0A400592C26A04210A4399
:101B3000C262C06A052708403F07059000222021A5
:101B40003846FEF793FE1326360200223146194826
:101B5000FEF78CFE0022A9021748FEF787FE01223D
:101B600011031548FEF782FE202000240090029405
:101B70006946019503943846FEF798FD029469463C
:101B80000C48009601950394FEF790FDB814009060
:101B900002946946019503940748FEF787FD3020BB
:101BA0006A4631C269460348FEF780FD07B0F0BDC2
:101BB00000100240000400500008005010B586B02C
:101BC0000024009416491748019402940394049445
:101BD000059412C004601449846041608021C16092
:101BE0000838FFF72BFB002801D072B6FEE7012072
:101BF0000003009069460B48FFF79CFB002801D0CA
:101C000072B6FEE7202004A911C106480839FFF783
:101C1000E9FA002801D072B6FEE706B010BD000058
:101C20000008014090000020FFFF000010B58AB0BE
:101C300000240494059406940794089401212348F1
:101C400009940094019402948907039412C07D21A1
:101C500004600901846041608021C1600838FFF799
:101C6000EDFA002801D072B6FEE7012000030490CF
:101C700004A91648FFF75EFB002801D072B6FEE704
:101C80001248FFF7E6FC002801D072B6FEE7089480
:101C900008A90E480994FFF7A5FA002801D072B6EA
:101CA000FEE76020009064200190029400226946C3
:101CB00003940648FFF765FC002801D072B6FEE7E2
:101CC0000248FFF739FC0AB010BD000010000020E8
:101CD00010B50C480A490160E12149024160002128
:101CE0008160C16001618161C1610C220162426158
:101CF0004162FFF765FE002801D072B6FEE710BD15
:101D000000380140D0000020FEE77047704710B552
:101D1000FEF7B8FD10BD000030B59DB03821684613
:101D2000FEF7DBFA142117A8FEF7D7FA24210EA834
:101D3000FEF7D3FA1A4801680322D2029143C21473
:101D400089180160022000900A90400401250C903F
:101D500003950001102100240D900B940491684616
:101D6000FEF7E0FF002801D072B6FEE70F201790C3
:101D70000320189019941A9401211B9417A8FEF7B8
:101D8000A7FE002801D072B6FEE70EA80E951194AA
:101D9000FEF7D2FD002801D072B6FEE71DB030BDBF
:101DA000007000407047000010B50448FFF731FB99
:101DB000052020210007FEF751FD10BD90000020F6
:101DC00010B50248FFF725FB10BD000010000020F1
:101DD00010B50248FFF71DFB10BD000050000020A9
:101DE00070B5026801239B07114C124D984203D035
:101DF000A04201D0A84203D17026B2434E683243BC
:101E0000984203D0A04201D0A84204D103231B0270
:101E10009A43CB681A4380239A430B691A430260A2
:101E20008A68C262096881620121416170BD000057
:101E3000000801400014014010B5CB06DB0E012163
:101E4000046A99408C430462016A9A40114301621A
:101E500010BD30B58468FF252D021B021343AC432F
:101E60000B432343836030BD826870239A430A4347
:101E700007210A438260704730B5026A5208520057
:101E80000262026A456883697024A3439C080B6858
:101E9000A40023430224A2438C6845601443836159
:101EA00049684163046230BD30B5026A10239A4329
:101EB0000262036A4568826973242402A2430C68A3
:101EC00024021443202293438A68456012011A4376
:101ED000846149688163026230BD30B5026AFF23C4
:101EE00001339A430262026A4568C3697024A343BE
:101EF0009C080B68A400234301246402A2438C685D
:101F0000456024021443C3614968C163046230BD63
:101F100030B5026A01231B039A430262036A4568D3
:101F2000C26973242402A2430C68240214430122D0
:101F3000520393438A68456012031A43C461496897
:101F40000164026230BD30B5036A046A640864004B
:101F500004628469F025AC43120122430A24A3439E
:101F60000B438261036230BD30B5036A1024A34382
:101F700003628469036A0F252D031203AC432243D5
:101F8000A024A343090119438261016230BD10B549
:101F9000818CC90707D001684A6801235B049A4312
:101FA000836A1A434A60818C890707D501684A68A9
:101FB00001231B049A43C36A1A434A60818C490770
:101FC00007D501684A6801239B049A43036B1A43AF
:101FD0004A60818C090707D501684A680123DB0341
:101FE0009A43436B1A434A60818CC90607D502683D
:101FF000916801231B039943836B19439160818C82
:10200000890607D501688A6801235B039A43C36B7D
:102010001A438A60818C490612D503685A680121E7
:102020000905046C8A4322435A60026C8A4207D134
:102030000268516803235B059943436C194351605F
:10204000818C090607D501684A680123DB04806C8E
:102050009A4302434A6010BDF8B50446002680301A
:102060000660FEF709FC054620680068124F00076D
:1020700009D501212B46002249052046009700F092
:1020800057F900280DD12068006840070BD50121C1
:102090002B46002289052046009700F049F90028C8
:1020A00001D00320F8BD2020A067E06726666034D9
:1020B00026750020F8BD0000FFFFFF0110B5806A03
:1020C0000022014640314A834A82FFF725FB10BDBA
:1020D00010B5EFF31081012282F3108802681368B3
:1020E000FF242134A343136081F31088EFF31081A0
:1020F000012282F31088026893685B085B0093609A
:1021000081F31088016E01290BD1EFF310810122B8
:1021100082F31088026813681024A343136081F3CC
:1021200010882021C16700210166416610BD0000B2
:10213000F8B50446016880682369E6691843636955
:10214000002533431843724A0B68724E33400343F1
:102150000B602168486803231B039843E368184316
:1021600048602168A069914201D0236A18438B68B6
:102170000B263602B34303438B60674923686748E5
:102180008B420CD1C0688007800F06D0012839D05F
:10219000022835D0032821D11EE001271FE0604925
:1021A0008B420AD1C0680C21084027D0042829D0CE
:1021B000082825D00C2811D10EE093420ED1C16819
:1021C00003208002014019D001208002091A19D091
:1021D000091A15D0814201D1082700E010274F4984
:1021E000504840398600934232D1002F0CD0022F44
:1021F0000DD0042F10D0082F7FD126E00027EEE766
:102200000227ECE70427EAE7FEF730FD06E009685D
:10221000C90605D4304603E0FEF748FD002872D019
:10222000626851005118814267D81103814264D31A
:10223000010E06025008002330185941FDF7AEFF89
:1022400003210902411A384A55E00120C003E7E79B
:102250000122E369D20393422BD13B0000F0F2F854
:102260000906090C4D114D4D4D274D00FEF7FEFCA2
:1022700009E0FEF70BFD06E00968C90605D4304603
:1022800003E0FEF713FD00283DD0616840004A08D6
:102290008018FEF724F880B20146244A1039914292
:1022A0002BD8511C01400007400F084329E010467D
:1022B000EBE73B0000F0C6F80906090C21122121CA
:1022C00021232100FEF7D2FC0AE0FEF7DFFC07E045
:1022D0000968C90606D4304604E00EE0FEF7E6FCC5
:1022E000002810D061684A081018FDF7F8FF80B286
:1022F00001460E4A1039914203D9012503E01046E8
:10230000F0E72168C86000206066A0662846F8BD36
:1023100000480040F369FFEF0038014040100240E0
:102320000044004000093D00FFFC0F00EFFF0000EB
:10233000FFB581B005461746044660350A9E55E054
:10234000701C53D0FEF798FA0499401AB04230D866
:10235000002E2ED020680168490747D5C069C043C8
:10236000000543D401202168C0020862EFF3108009
:10237000012181F3108821680B68FF22A132934369
:102380000B6080F31088EFF31080012181F3108837
:1023900021688A68520852008A6080F310882020E1
:1023A000A067E0678034206000202875032005B016
:1023B000F0BDEFF31080012181F3108821680B68D4
:1023C000FF22A13293430B6080F31088EFF310805B
:1023D000012181F3108821688A68520852008A60BE
:1023E00080F310882020A067E067DDE72068C169DE
:1023F0000298884304D00020B842A1D00020D6E73C
:102400000120F9E710B50248FFF788F910BD000078
:10241000D0000020F8B5040C8BB2264682B25E4391
:102420000D0C1046370C58433604801900217941B1
:1024300016466E43370C36048019794126466E43A2
:102440008919F8BD30B47446641E2578641CAB420B
:1024500000D21D46635D5B00E31830BC18470000E6
:102460008307FF22DB0E9A408907090E9940002856
:1024700008DB830809489B001B1818689043084331
:10248000186070470007000F0838830804489B0055
:102490001B18D86990430843D861704700E400E0F6
:1024A00000ED00E01CB5FEF7F5F9FFF735FCFFF78E
:1024B00027FB00242348009421490194016022490C
:1024C000846041608911C16080214161FEF7B6FEE0
:1024D000002801D072B6FEE72020009069460194E2
:1024E0001848FEF77FFE002801D072B6FEE71748B5
:1024F000016B012211430163006B10400022009028
:1025000011460A20FEF714FA0A20FEF705FAFFF733
:10251000DFFBFFF78BFBFFF751FB0A48FEF7E4FEFA
:10252000084800214038FFF7B5F801221103084898
:10253000FEF79CF9FF20F530FEF7A6F8FEE7000055
:102540000010004050000020FF7C000000100240FE
:102550000008005000000000000000000102030419
:1025600006070809030406080C10182030000000B4
:10257000000102030400000098250008000000206C
:102580001000000004010008A82500081000002029
:1025900038080000200100080100000004000000CD
:0825A000000000000000200013
:04000005080000C12E
:00000001FF
